:0400000060EF00F0BD
:10000800FACF01F0FBCF02F0E9CF03F0EACF04F01A
:10001800E1CF05F0E2CF06F0D9CF07F0DACF08F04C
:10002800F3CF09F0F4CF0AF0F6CF0BF0F7CF0CF0CE
:10003800F8CF0DF0F5CF0EF0F2AA01D001D01FD005
:10004800F2A401D001D01BD080B201D001D001D0E0
:10005800578080B401D001D001D0578280B601D03A
:1000680001D001D0578480BA01D001D001D0578681
:1000780082B001D001D001D05788F29400D00EC0D0
:10008800F5FF0DC0F8FF0CC0F7FF0BC0F6FF0AC064
:10009800F4FF09C0F3FF08C0DAFF07C0D9FF06C0A4
:1000A800E2FF05C0E1FF04C0EAFF03C0E9FF02C0A8
:1000B800FBFF01C0FAFF1100F3EF02F00FC0D9FFF8
:1000C80010C0DAFF000EDF6E20EE01F00F50D926C7
:1000D8001050DA22010EDF6E20EE02F00F50D92602
:1000E8001050DA22020EDF6E20EE03F00F50D926F0
:1000F8001050DA22030EDF6E20EE04F00F50D926DE
:100108001050DA22040EDF6E20EE05F00F50D926CB
:100118001050DA22050EDF6E20EE06F00F50D926B9
:100128001050DA22060EDF6E20EE07F00F50D926A7
:100138001050DA22070EDF6E20EE08F00F50D92695
:100148001050DA22080EDF6E20EE09F00F50D92683
:100158001050DA22090EDF6E20EE0AF00F50D92671
:100168001050DA220A0EDF6E20EE0BF00F50D9265F
:100178001050DA220B0EDF6E20EE0CF00F50D9264D
:100188001050DA220C0EDF6E20EE0DF00F50D9263B
:100198001050DA220D0EDF6E20EE0EF00F50D92629
:1001A8001050DA220E0EDF6E20EE0FF00F50D92617
:1001B8001050DA220F0EDF6E20EE10F00F50D92605
:1001C8001050DA22000EDF6E20EE11F00F50D92603
:1001D8001050DA22010EDF6E20EE12F00F50D926F1
:1001E8001050DA22000EDF6E20EE13F00F50D926E1
:1001F8001050DA22010EDF6E20EE14F00F50D926CF
:100208001050DA22000EDF6E20EE15F00F50D926BE
:100218001050DA22010EDF6E20EE16F00F50D926AC
:100228001050DA22000EDF6E20EE17F00F50D9269C
:100238001050DA22010EDF6E20EE18F00F50D9268A
:100248001050DA22000EDF6E20EE19F00F50D9267A
:100258001050DA22010EDF6E20EE1AF00F50D92668
:100268001050DA22000EDF6E20EE1BF00F50D92658
:100278001050DA22010EDF6E20EE1CF00F50D92646
:100288001050DA22000EDF6E20EE1DF00F50D92636
:100298001050DA22010EDF6E20EE1EF00F50D92624
:1002A8001050DA22000EDF6E20EE1FF00F50D92614
:1002B8001050DA22010EDF6E00D0120016C00FF0C7
:1002C80017C010F0000E126E180E116E000E146E8C
:1002D800190E136E69EC02F0C294C280C28200D07B
:1002E800C2B201D001D0FCD7C2904350C35C445085
:1002F800C458D8A001D001D00BD0C350455CC4501D
:100308004658D8A001D001D003D0000E69D068D0DB
:100318004750C35C4850C458D8A001D001D011D070
:10032800C350495CC4504A58D8A001D001D009D064
:100338001950D8B401D002D0010E01D0000E50D00F
:100348004FD04B50C35C4C50C458D8A001D001D0FA
:1003580011D0C3504D5CC4504E58D8A001D001D024
:1003680009D01904D8B401D002D0010E01D0000E72
:1003780037D036D04F50C35C5050C458D8A001D0A5
:1003880001D012D0C350515CC4505258D8A001D0EB
:1003980001D00AD01950020AD8B401D002D0010EF7
:1003A80001D0000E1DD01CD05350C35C5450C4580B
:1003B800D8A001D001D012D0C350555CC4505658B3
:1003C800D8A001D001D00AD01950030AD8B401D05E
:1003D80002D0010E01D0000E03D002D0000E00D0D2
:1003E80012001B6E010E1C6E1B5046EC03F0000E33
:1003F800106E220E0F6E62EC00F0000E106E1D0ED5
:100408000F6ECBEC02F04EEC03F000D0000E106E35
:10041800220E0F6E51EC03F0000E126E220E116EBA
:10042800000E146E1D0E136E17EC03F0000E176EFF
:10043800220E166E30EC02F0000E106E1D0E0F6EBE
:100448009BEC02F0000E176E220E166E62EC01F0A5
:100458001C6EDCD760EF00F016C00FF017C010F06C
:10046800000E126E1A0E116E000E146E190E136E17
:1004780069EC02F01AC018F0080E1816184618464B
:1004880018468A501818F70B18188A6E1AC018F0F0
:10049800040E1816184618468A501818FB0B181818
:1004A8008A6E1AC018F0020E181618468A501818C4
:1004B800FD0B18188A6E1AC018F0010E18168A500B
:1004C8001818FE0B18188A6E120020EE20F00F5034
:1004D800D9261050DA22DF50156E1550010DF35051
:1004E8000F24D96EF4501020DA6E11C0E1FF12C04B
:1004F800E2FFDFCFE7FF20EE20F00F50D9261050A3
:10050800DA22DF50156E1550010D100EF326000E7D
:10051800F422F3500F24D96EF4501020DA6E13C071
:10052800E1FF14C0E2FFDFCFE7FF00D01200575011
:10053800010B0FC0D9FF10C0DAFFDF6E20EE01F00B
:100548000F50D9261050DA225730010BDF6E20EEFB
:1005580002F00F50D9261050DA225730E832010B3A
:10056800DF6E20EE03F00F50D9261050DA225730F4
:10057800E832E832010BDF6E20EE04F00F50D92686
:100588001050DA225738010BDF6E00D012000FC06E
:10059800D9FF10C0DAFF000EDF6E20EE01F00F5019
:1005A800D9261050DA22000EDF6E20EE02F00F502E
:1005B800D9261050DA22000EDF6E20EE03F00F501D
:1005C800D9261050DA22000EDF6E20EE04F00F500C
:1005D800D9261050DA22000EDF6E00D01200576ABA
:1005E800660EF66E060EF76E000EF86E00EE60F000
:1005F80010EE14F00900F5CFEEFFE550E150FAE1F6
:10060800520EF66E060EF76E000EF86E00EE43F010
:1006180010EE14F00900F5CFEEFFE550E150FAE1D5
:100628000001F5EF01F013C0D9FF14C0DAFFDF5065
:10063800D8B401D001D008D011C00FF012C010F00A
:100648003DEC03F001D000D012000000C800C90042
:10065800900191015802590220032103000400006F
:10066800C800C900900191015802590220032103D2
:10067800000420EE20F00F50D9261050DA22DF2A8D
:1006880000D01200D59AD596D580D582D584F28A25
:0C069800F28E12008A0EC16E12001200D9
:020000040001F9
:08FFF800BEF7FFFFFFFBFFFB5A
:00000001FF
